{
  "contractName": "phone0x",
  "abi": [
    {
      "inputs": [
        {
          "internalType": "address",
          "name": "firstNodeId",
          "type": "address"
        },
        {
          "internalType": "bytes32",
          "name": "firstNodeIP",
          "type": "bytes32"
        }
      ],
      "stateMutability": "nonpayable",
      "type": "constructor"
    },
    {
      "inputs": [
        {
          "internalType": "uint256",
          "name": "",
          "type": "uint256"
        }
      ],
      "name": "CDRs",
      "outputs": [
        {
          "internalType": "address",
          "name": "addrCaller",
          "type": "address"
        },
        {
          "internalType": "address",
          "name": "addrCallee",
          "type": "address"
        },
        {
          "internalType": "uint256",
          "name": "startCallDate",
          "type": "uint256"
        },
        {
          "internalType": "int32",
          "name": "callDuration",
          "type": "int32"
        },
        {
          "internalType": "address",
          "name": "nodeIdCallOperator",
          "type": "address"
        },
        {
          "internalType": "address",
          "name": "nodeIdCDRWriter",
          "type": "address"
        }
      ],
      "stateMutability": "view",
      "type": "function",
      "constant": true
    },
    {
      "inputs": [],
      "name": "adminPerson",
      "outputs": [
        {
          "internalType": "address",
          "name": "",
          "type": "address"
        }
      ],
      "stateMutability": "view",
      "type": "function",
      "constant": true
    },
    {
      "inputs": [
        {
          "internalType": "uint256",
          "name": "",
          "type": "uint256"
        }
      ],
      "name": "nodes",
      "outputs": [
        {
          "internalType": "address",
          "name": "nodeId",
          "type": "address"
        },
        {
          "internalType": "bytes32",
          "name": "nodeIPAddress",
          "type": "bytes32"
        }
      ],
      "stateMutability": "view",
      "type": "function",
      "constant": true
    },
    {
      "inputs": [
        {
          "internalType": "address",
          "name": "",
          "type": "address"
        }
      ],
      "name": "users",
      "outputs": [
        {
          "internalType": "bytes32",
          "name": "userVoipCredentials",
          "type": "bytes32"
        }
      ],
      "stateMutability": "view",
      "type": "function",
      "constant": true
    },
    {
      "inputs": [
        {
          "internalType": "address",
          "name": "account",
          "type": "address"
        }
      ],
      "name": "toString",
      "outputs": [
        {
          "internalType": "string",
          "name": "",
          "type": "string"
        }
      ],
      "stateMutability": "pure",
      "type": "function",
      "constant": true
    },
    {
      "inputs": [
        {
          "internalType": "uint256",
          "name": "value",
          "type": "uint256"
        }
      ],
      "name": "toString",
      "outputs": [
        {
          "internalType": "string",
          "name": "",
          "type": "string"
        }
      ],
      "stateMutability": "pure",
      "type": "function",
      "constant": true
    },
    {
      "inputs": [
        {
          "internalType": "bytes",
          "name": "data",
          "type": "bytes"
        }
      ],
      "name": "toString",
      "outputs": [
        {
          "internalType": "string",
          "name": "",
          "type": "string"
        }
      ],
      "stateMutability": "pure",
      "type": "function",
      "constant": true
    },
    {
      "inputs": [
        {
          "internalType": "bytes32",
          "name": "value",
          "type": "bytes32"
        }
      ],
      "name": "toString",
      "outputs": [
        {
          "internalType": "string",
          "name": "",
          "type": "string"
        }
      ],
      "stateMutability": "pure",
      "type": "function",
      "constant": true
    },
    {
      "inputs": [
        {
          "internalType": "address",
          "name": "nodeId",
          "type": "address"
        },
        {
          "internalType": "bytes32",
          "name": "nodeIP",
          "type": "bytes32"
        }
      ],
      "name": "addNode",
      "outputs": [],
      "stateMutability": "nonpayable",
      "type": "function"
    },
    {
      "inputs": [
        {
          "internalType": "address",
          "name": "nodeId",
          "type": "address"
        },
        {
          "internalType": "bytes32",
          "name": "nodeIP",
          "type": "bytes32"
        }
      ],
      "name": "updateNode",
      "outputs": [],
      "stateMutability": "nonpayable",
      "type": "function"
    },
    {
      "inputs": [
        {
          "internalType": "address",
          "name": "nodeId",
          "type": "address"
        }
      ],
      "name": "removeNode",
      "outputs": [],
      "stateMutability": "nonpayable",
      "type": "function"
    },
    {
      "inputs": [
        {
          "internalType": "address",
          "name": "nodeId",
          "type": "address"
        }
      ],
      "name": "getNodeIP",
      "outputs": [
        {
          "internalType": "bytes32",
          "name": "nodeIP",
          "type": "bytes32"
        }
      ],
      "stateMutability": "view",
      "type": "function",
      "constant": true
    },
    {
      "inputs": [
        {
          "internalType": "address",
          "name": "userId",
          "type": "address"
        },
        {
          "internalType": "bytes32",
          "name": "userCreds",
          "type": "bytes32"
        }
      ],
      "name": "addUser",
      "outputs": [],
      "stateMutability": "nonpayable",
      "type": "function"
    },
    {
      "inputs": [
        {
          "internalType": "address",
          "name": "userId",
          "type": "address"
        },
        {
          "internalType": "bytes32",
          "name": "userCreds",
          "type": "bytes32"
        }
      ],
      "name": "updateUser",
      "outputs": [],
      "stateMutability": "nonpayable",
      "type": "function"
    },
    {
      "inputs": [
        {
          "internalType": "address",
          "name": "userId",
          "type": "address"
        }
      ],
      "name": "removeUser",
      "outputs": [],
      "stateMutability": "nonpayable",
      "type": "function"
    },
    {
      "inputs": [
        {
          "internalType": "address",
          "name": "userId",
          "type": "address"
        }
      ],
      "name": "getUserCreds",
      "outputs": [
        {
          "internalType": "bytes32",
          "name": "userCreds",
          "type": "bytes32"
        }
      ],
      "stateMutability": "view",
      "type": "function",
      "constant": true
    },
    {
      "inputs": [],
      "name": "getRandomNodeIP",
      "outputs": [
        {
          "internalType": "bytes32",
          "name": "nodeIP",
          "type": "bytes32"
        }
      ],
      "stateMutability": "view",
      "type": "function",
      "constant": true
    },
    {
      "inputs": [
        {
          "internalType": "address",
          "name": "addrCaller",
          "type": "address"
        },
        {
          "internalType": "address",
          "name": "addrCallee",
          "type": "address"
        },
        {
          "internalType": "uint256",
          "name": "startCallDate",
          "type": "uint256"
        },
        {
          "internalType": "int32",
          "name": "callDuration",
          "type": "int32"
        },
        {
          "internalType": "address",
          "name": "nodeIdCallOperator",
          "type": "address"
        },
        {
          "internalType": "address",
          "name": "nodeIdCDRWriter",
          "type": "address"
        }
      ],
      "name": "writeCDR",
      "outputs": [],
      "stateMutability": "nonpayable",
      "type": "function"
    },
    {
      "inputs": [
        {
          "internalType": "address",
          "name": "userId",
          "type": "address"
        }
      ],
      "name": "getCDRsCountByUser",
      "outputs": [
        {
          "internalType": "uint256",
          "name": "count",
          "type": "uint256"
        }
      ],
      "stateMutability": "view",
      "type": "function",
      "constant": true
    },
    {
      "inputs": [
        {
          "internalType": "address",
          "name": "userId",
          "type": "address"
        },
        {
          "internalType": "uint256",
          "name": "index",
          "type": "uint256"
        }
      ],
      "name": "getCDRsByUserIndex",
      "outputs": [
        {
          "internalType": "address",
          "name": "addrCaller",
          "type": "address"
        },
        {
          "internalType": "address",
          "name": "addrCallee",
          "type": "address"
        },
        {
          "internalType": "uint256",
          "name": "startCallDate",
          "type": "uint256"
        },
        {
          "internalType": "int32",
          "name": "callDuration",
          "type": "int32"
        },
        {
          "internalType": "address",
          "name": "nodeIdCallOperator",
          "type": "address"
        },
        {
          "internalType": "address",
          "name": "nodeIdCDRWriter",
          "type": "address"
        }
      ],
      "stateMutability": "view",
      "type": "function",
      "constant": true
    },
    {
      "inputs": [
        {
          "internalType": "address",
          "name": "nodeId",
          "type": "address"
        }
      ],
      "name": "getCDRsCountByNodeOperator",
      "outputs": [
        {
          "internalType": "uint256",
          "name": "count",
          "type": "uint256"
        }
      ],
      "stateMutability": "view",
      "type": "function",
      "constant": true
    },
    {
      "inputs": [
        {
          "internalType": "address",
          "name": "nodeId",
          "type": "address"
        },
        {
          "internalType": "uint256",
          "name": "index",
          "type": "uint256"
        }
      ],
      "name": "getCDRsByNodeOperatorIndex",
      "outputs": [
        {
          "internalType": "address",
          "name": "addrCaller",
          "type": "address"
        },
        {
          "internalType": "address",
          "name": "addrCallee",
          "type": "address"
        },
        {
          "internalType": "uint256",
          "name": "startCallDate",
          "type": "uint256"
        },
        {
          "internalType": "int32",
          "name": "callDuration",
          "type": "int32"
        },
        {
          "internalType": "address",
          "name": "nodeIdCallOperator",
          "type": "address"
        },
        {
          "internalType": "address",
          "name": "nodeIdCDRWriter",
          "type": "address"
        }
      ],
      "stateMutability": "view",
      "type": "function",
      "constant": true
    }
  ],
  "bytecode": "0x60806040523480156200001157600080fd5b5060405162002eec38038062002eec8339818101604052810190620000379190620001cd565b336000806101000a81548173ffffffffffffffffffffffffffffffffffffffff021916908373ffffffffffffffffffffffffffffffffffffffff160217905550600260405180604001604052808473ffffffffffffffffffffffffffffffffffffffff16815260200183815250908060018154018082558091505060019003906000526020600020906002020160009091909190915060008201518160000160006101000a81548173ffffffffffffffffffffffffffffffffffffffff021916908373ffffffffffffffffffffffffffffffffffffffff160217905550602082015181600101555050505062000214565b600080fd5b600073ffffffffffffffffffffffffffffffffffffffff82169050919050565b60006200015a826200012d565b9050919050565b6200016c816200014d565b81146200017857600080fd5b50565b6000815190506200018c8162000161565b92915050565b6000819050919050565b620001a78162000192565b8114620001b357600080fd5b50565b600081519050620001c7816200019c565b92915050565b60008060408385031215620001e757620001e662000128565b5b6000620001f7858286016200017b565b92505060206200020a85828601620001b6565b9150509250929050565b612cc880620002246000396000f3fe608060405234801561001057600080fd5b50600436106101425760003560e01c8063a87430ba116100b8578063b9ce32801161007c578063b9ce3280146103b6578063bc1b0987146103e6578063c80baa4d14610402578063d9cec2da14610432578063e85f45dd14610462578063ebeea3481461049757610142565b8063a87430ba14610302578063b11a19e814610332578063b2b99ec914610362578063b4be4f8a1461037e578063b4eb9a421461039a57610142565b806356ca623e1161010a57806356ca623e1461021e5780635e873d0f1461024e57806364f42a991461026a5780636900a3ae1461028657806371aad10d146102b657806398575188146102e657610142565b806304fb19bb146101475780631c53c2801461017c5780633262c1c5146101ad578063429e9f43146101cb5780634753f5da14610200575b600080fd5b610161600480360381019061015c919061212c565b6104c7565b604051610173969594939291906121a6565b60405180910390f35b61019660048036038101906101919190612207565b61072e565b6040516101a492919061224d565b60405180910390f35b6101b5610782565b6040516101c29190612276565b60405180910390f35b6101e560048036038101906101e09190612207565b6107a6565b6040516101f7969594939291906121a6565b60405180910390f35b61020861087f565b6040516102159190612291565b60405180910390f35b610238600480360381019061023391906122ac565b6108f4565b6040516102459190612372565b60405180910390f35b610268600480360381019061026391906123c0565b610925565b005b610284600480360381019061027f91906123c0565b610a79565b005b6102a0600480360381019061029b9190612207565b610b8b565b6040516102ad9190612372565b60405180910390f35b6102d060048036038101906102cb9190612535565b610bbc565b6040516102dd9190612372565b60405180910390f35b61030060048036038101906102fb91906122ac565b610eb6565b005b61031c600480360381019061031791906122ac565b610fc1565b6040516103299190612291565b60405180910390f35b61034c6004803603810190610347919061257e565b610fdf565b6040516103599190612372565b60405180910390f35b61037c600480360381019061037791906122ac565b611010565b005b610398600480360381019061039391906123c0565b6112e8565b005b6103b460048036038101906103af91906125d7565b6114f7565b005b6103d060048036038101906103cb91906122ac565b611a03565b6040516103dd9190612291565b60405180910390f35b61040060048036038101906103fb91906123c0565b611acf565b005b61041c600480360381019061041791906122ac565b611c59565b6040516104299190612291565b60405180910390f35b61044c600480360381019061044791906122ac565b611ca5565b6040516104599190612664565b60405180910390f35b61047c6004803603810190610477919061212c565b611d61565b60405161048e969594939291906121a6565b60405180910390f35b6104b160048036038101906104ac91906122ac565b611fc8565b6040516104be9190612664565b60405180910390f35b600080600080600080600080600090505b60038054905081101561070c578973ffffffffffffffffffffffffffffffffffffffff16600382815481106105105761050f61267f565b5b906000526020600020906005020160000160009054906101000a900473ffffffffffffffffffffffffffffffffffffffff1673ffffffffffffffffffffffffffffffffffffffff1614156106f957818914156106ea576003818154811061057a5761057961267f565b5b906000526020600020906005020160000160009054906101000a900473ffffffffffffffffffffffffffffffffffffffff16600382815481106105c0576105bf61267f565b5b906000526020600020906005020160010160009054906101000a900473ffffffffffffffffffffffffffffffffffffffff16600383815481106106065761060561267f565b5b9060005260206000209060050201600201546003848154811061062c5761062b61267f565b5b906000526020600020906005020160030160009054906101000a900460030b6003858154811061065f5761065e61267f565b5b906000526020600020906005020160030160049054906101000a900473ffffffffffffffffffffffffffffffffffffffff16600386815481106106a5576106a461267f565b5b906000526020600020906005020160040160009054906101000a900473ffffffffffffffffffffffffffffffffffffffff169750975097509750975097505050610724565b81806106f5906126dd565b9250505b8080610704906126dd565b9150506104d8565b60008060008060008097509750975097509750975050505b9295509295509295565b6002818154811061073e57600080fd5b90600052602060002090600202016000915090508060000160009054906101000a900473ffffffffffffffffffffffffffffffffffffffff16908060010154905082565b60008054906101000a900473ffffffffffffffffffffffffffffffffffffffff1681565b600381815481106107b657600080fd5b90600052602060002090600502016000915090508060000160009054906101000a900473ffffffffffffffffffffffffffffffffffffffff16908060010160009054906101000a900473ffffffffffffffffffffffffffffffffffffffff16908060020154908060030160009054906101000a900460030b908060030160049054906101000a900473ffffffffffffffffffffffffffffffffffffffff16908060040160009054906101000a900473ffffffffffffffffffffffffffffffffffffffff16905086565b60008060028054905090506000814233436040516020016108a29392919061278f565b6040516020818303038152906040528051906020012060001c6108c591906127fb565b9050600281815481106108db576108da61267f565b5b9060005260206000209060020201600101549250505090565b606061091e8260405160200161090a919061282c565b604051602081830303815290604052610bbc565b9050919050565b61094e60008054906101000a900473ffffffffffffffffffffffffffffffffffffffff166108f4565b60405160200161095e9190612883565b6040516020818303038152906040528051906020012061097d336108f4565b60405160200161098d9190612883565b60405160208183030381529060405280519060200120146109e3576040517f08c379a00000000000000000000000000000000000000000000000000000000081526004016109da906128e6565b60405180910390fd5b6000600160008473ffffffffffffffffffffffffffffffffffffffff1673ffffffffffffffffffffffffffffffffffffffff1681526020019081526020016000206000015414610a755780600160008473ffffffffffffffffffffffffffffffffffffffff1673ffffffffffffffffffffffffffffffffffffffff168152602001908152602001600020600001819055505b5050565b610aa260008054906101000a900473ffffffffffffffffffffffffffffffffffffffff166108f4565b604051602001610ab29190612883565b60405160208183030381529060405280519060200120610ad1336108f4565b604051602001610ae19190612883565b6040516020818303038152906040528051906020012014610b37576040517f08c379a0000000000000000000000000000000000000000000000000000000008152600401610b2e906128e6565b60405180910390fd5b60008114610b875780600160008473ffffffffffffffffffffffffffffffffffffffff1673ffffffffffffffffffffffffffffffffffffffff168152602001908152602001600020600001819055505b5050565b6060610bb582604051602001610ba19190612906565b604051602081830303815290604052610bbc565b9050919050565b606060006040518060400160405280601081526020017f30313233343536373839616263646566000000000000000000000000000000008152509050600060028451610c089190612921565b6002610c14919061297b565b67ffffffffffffffff811115610c2d57610c2c61240a565b5b6040519080825280601f01601f191660200182016040528015610c5f5781602001600182028036833780820191505090505b5090507f300000000000000000000000000000000000000000000000000000000000000081600081518110610c9757610c9661267f565b5b60200101907effffffffffffffffffffffffffffffffffffffffffffffffffffffffffffff1916908160001a9053507f780000000000000000000000000000000000000000000000000000000000000081600181518110610cfb57610cfa61267f565b5b60200101907effffffffffffffffffffffffffffffffffffffffffffffffffffffffffffff1916908160001a90535060005b8451811015610eab57826004868381518110610d4c57610d4b61267f565b5b602001015160f81c60f81b7effffffffffffffffffffffffffffffffffffffffffffffffffffffffffffff1916901c60f81c60ff1681518110610d9257610d9161267f565b5b602001015160f81c60f81b82600283610dab9190612921565b6002610db7919061297b565b81518110610dc857610dc761267f565b5b60200101907effffffffffffffffffffffffffffffffffffffffffffffffffffffffffffff1916908160001a90535082600f60f81b868381518110610e1057610e0f61267f565b5b602001015160f81c60f81b1660f81c60ff1681518110610e3357610e3261267f565b5b602001015160f81c60f81b82600283610e4c9190612921565b6003610e58919061297b565b81518110610e6957610e6861267f565b5b60200101907effffffffffffffffffffffffffffffffffffffffffffffffffffffffffffff1916908160001a9053508080610ea3906126dd565b915050610d2d565b508092505050919050565b610edf60008054906101000a900473ffffffffffffffffffffffffffffffffffffffff166108f4565b604051602001610eef9190612883565b60405160208183030381529060405280519060200120610f0e336108f4565b604051602001610f1e9190612883565b6040516020818303038152906040528051906020012014610f74576040517f08c379a0000000000000000000000000000000000000000000000000000000008152600401610f6b90612a43565b60405180910390fd5b600160008273ffffffffffffffffffffffffffffffffffffffff1673ffffffffffffffffffffffffffffffffffffffff168152602001908152602001600020600080820160009055505050565b60016020528060005260406000206000915090508060000154905081565b606061100982604051602001610ff59190612a84565b604051602081830303815290604052610bbc565b9050919050565b61103960008054906101000a900473ffffffffffffffffffffffffffffffffffffffff166108f4565b6040516020016110499190612883565b60405160208183030381529060405280519060200120611068336108f4565b6040516020016110789190612883565b60405160208183030381529060405280519060200120146110ce576040517f08c379a00000000000000000000000000000000000000000000000000000000081526004016110c590612aeb565b60405180910390fd5b600080600090505b60016002805490506110e89190612b0b565b81101561117f578273ffffffffffffffffffffffffffffffffffffffff166002828154811061111a5761111961267f565b5b906000526020600020906002020160000160009054906101000a900473ffffffffffffffffffffffffffffffffffffffff1673ffffffffffffffffffffffffffffffffffffffff16141561116c578091505b8080611177906126dd565b9150506110d6565b50600280549050811061119257506112e5565b60008190505b60016002805490506111aa9190612b0b565b8110156112885760026001826111c0919061297b565b815481106111d1576111d061267f565b5b9060005260206000209060020201600282815481106111f3576111f261267f565b5b90600052602060002090600202016000820160009054906101000a900473ffffffffffffffffffffffffffffffffffffffff168160000160006101000a81548173ffffffffffffffffffffffffffffffffffffffff021916908373ffffffffffffffffffffffffffffffffffffffff160217905550600182015481600101559050508080611280906126dd565b915050611198565b50600280548061129b5761129a612b3f565b5b6001900381819060005260206000209060020201600080820160006101000a81549073ffffffffffffffffffffffffffffffffffffffff0219169055600182016000905550509055505b50565b61131160008054906101000a900473ffffffffffffffffffffffffffffffffffffffff166108f4565b6040516020016113219190612883565b60405160208183030381529060405280519060200120611340336108f4565b6040516020016113509190612883565b60405160208183030381529060405280519060200120146113a6576040517f08c379a000000000000000000000000000000000000000000000000000000000815260040161139d90612aeb565b60405180910390fd5b60005b600280549050811015611448578273ffffffffffffffffffffffffffffffffffffffff16600282815481106113e1576113e061267f565b5b906000526020600020906002020160000160009054906101000a900473ffffffffffffffffffffffffffffffffffffffff1673ffffffffffffffffffffffffffffffffffffffff16141561143557506114f3565b8080611440906126dd565b9150506113a9565b50600260405180604001604052808473ffffffffffffffffffffffffffffffffffffffff16815260200183815250908060018154018082558091505060019003906000526020600020906002020160009091909190915060008201518160000160006101000a81548173ffffffffffffffffffffffffffffffffffffffff021916908373ffffffffffffffffffffffffffffffffffffffff1602179055506020820151816001015550505b5050565b6000805b8015801561150d575060028054905082105b156115a3578373ffffffffffffffffffffffffffffffffffffffff166002838154811061153d5761153c61267f565b5b906000526020600020906002020160000160009054906101000a900473ffffffffffffffffffffffffffffffffffffffff1673ffffffffffffffffffffffffffffffffffffffff16141561159057600190505b818061159b906126dd565b9250506114fb565b806115e3576040517f08c379a00000000000000000000000000000000000000000000000000000000081526004016115da90612be0565b60405180910390fd5b60005b6003805490508110156117f2578873ffffffffffffffffffffffffffffffffffffffff166003828154811061161e5761161d61267f565b5b906000526020600020906005020160000160009054906101000a900473ffffffffffffffffffffffffffffffffffffffff1673ffffffffffffffffffffffffffffffffffffffff161480156116e357508773ffffffffffffffffffffffffffffffffffffffff16600382815481106116995761169861267f565b5b906000526020600020906005020160010160009054906101000a900473ffffffffffffffffffffffffffffffffffffffff1673ffffffffffffffffffffffffffffffffffffffff16145b8015611713575086600382815481106116ff576116fe61267f565b5b906000526020600020906005020160020154145b801561175657508560030b600382815481106117325761173161267f565b5b906000526020600020906005020160030160009054906101000a900460030b60030b145b80156117d257508473ffffffffffffffffffffffffffffffffffffffff16600382815481106117885761178761267f565b5b906000526020600020906005020160030160049054906101000a900473ffffffffffffffffffffffffffffffffffffffff1673ffffffffffffffffffffffffffffffffffffffff16145b156117df575050506119fb565b80806117ea906126dd565b9150506115e6565b5060036040518060c001604052808a73ffffffffffffffffffffffffffffffffffffffff1681526020018973ffffffffffffffffffffffffffffffffffffffff1681526020018881526020018760030b81526020018673ffffffffffffffffffffffffffffffffffffffff1681526020018573ffffffffffffffffffffffffffffffffffffffff16815250908060018154018082558091505060019003906000526020600020906005020160009091909190915060008201518160000160006101000a81548173ffffffffffffffffffffffffffffffffffffffff021916908373ffffffffffffffffffffffffffffffffffffffff16021790555060208201518160010160006101000a81548173ffffffffffffffffffffffffffffffffffffffff021916908373ffffffffffffffffffffffffffffffffffffffff1602179055506040820151816002015560608201518160030160006101000a81548163ffffffff021916908360030b63ffffffff16021790555060808201518160030160046101000a81548173ffffffffffffffffffffffffffffffffffffffff021916908373ffffffffffffffffffffffffffffffffffffffff16021790555060a08201518160040160006101000a81548173ffffffffffffffffffffffffffffffffffffffff021916908373ffffffffffffffffffffffffffffffffffffffff160217905550505050505b505050505050565b6000805b600280549050811015611ac9578273ffffffffffffffffffffffffffffffffffffffff1660028281548110611a3f57611a3e61267f565b5b906000526020600020906002020160000160009054906101000a900473ffffffffffffffffffffffffffffffffffffffff1673ffffffffffffffffffffffffffffffffffffffff161415611ab65760028181548110611aa157611aa061267f565b5b90600052602060002090600202016001015491505b8080611ac1906126dd565b915050611a07565b50919050565b611af860008054906101000a900473ffffffffffffffffffffffffffffffffffffffff166108f4565b604051602001611b089190612883565b60405160208183030381529060405280519060200120611b27336108f4565b604051602001611b379190612883565b6040516020818303038152906040528051906020012014611b8d576040517f08c379a0000000000000000000000000000000000000000000000000000000008152600401611b8490612c72565b60405180910390fd5b60005b600280549050811015611c54578273ffffffffffffffffffffffffffffffffffffffff1660028281548110611bc857611bc761267f565b5b906000526020600020906002020160000160009054906101000a900473ffffffffffffffffffffffffffffffffffffffff1673ffffffffffffffffffffffffffffffffffffffff161415611c41578160028281548110611c2b57611c2a61267f565b5b9060005260206000209060020201600101819055505b8080611c4c906126dd565b915050611b90565b505050565b6000600160008373ffffffffffffffffffffffffffffffffffffffff1673ffffffffffffffffffffffffffffffffffffffff168152602001908152602001600020600001549050919050565b6000806000905060005b600380549050811015611d57578373ffffffffffffffffffffffffffffffffffffffff1660038281548110611ce757611ce661267f565b5b906000526020600020906005020160000160009054906101000a900473ffffffffffffffffffffffffffffffffffffffff1673ffffffffffffffffffffffffffffffffffffffff161415611d44578180611d40906126dd565b9250505b8080611d4f906126dd565b915050611caf565b5080915050919050565b600080600080600080600080600090505b600380549050811015611fa6578973ffffffffffffffffffffffffffffffffffffffff1660038281548110611daa57611da961267f565b5b906000526020600020906005020160030160049054906101000a900473ffffffffffffffffffffffffffffffffffffffff1673ffffffffffffffffffffffffffffffffffffffff161415611f935781891415611f845760038181548110611e1457611e1361267f565b5b906000526020600020906005020160000160009054906101000a900473ffffffffffffffffffffffffffffffffffffffff1660038281548110611e5a57611e5961267f565b5b906000526020600020906005020160010160009054906101000a900473ffffffffffffffffffffffffffffffffffffffff1660038381548110611ea057611e9f61267f565b5b90600052602060002090600502016002015460038481548110611ec657611ec561267f565b5b906000526020600020906005020160030160009054906101000a900460030b60038581548110611ef957611ef861267f565b5b906000526020600020906005020160030160049054906101000a900473ffffffffffffffffffffffffffffffffffffffff1660038681548110611f3f57611f3e61267f565b5b906000526020600020906005020160040160009054906101000a900473ffffffffffffffffffffffffffffffffffffffff169750975097509750975097505050611fbe565b8180611f8f906126dd565b9250505b8080611f9e906126dd565b915050611d72565b60008060008060008097509750975097509750975050505b9295509295509295565b6000806000905060005b60038054905081101561207a578373ffffffffffffffffffffffffffffffffffffffff166003828154811061200a5761200961267f565b5b906000526020600020906005020160030160049054906101000a900473ffffffffffffffffffffffffffffffffffffffff1673ffffffffffffffffffffffffffffffffffffffff161415612067578180612063906126dd565b9250505b8080612072906126dd565b915050611fd2565b5080915050919050565b6000604051905090565b600080fd5b600080fd5b600073ffffffffffffffffffffffffffffffffffffffff82169050919050565b60006120c382612098565b9050919050565b6120d3816120b8565b81146120de57600080fd5b50565b6000813590506120f0816120ca565b92915050565b6000819050919050565b612109816120f6565b811461211457600080fd5b50565b60008135905061212681612100565b92915050565b600080604083850312156121435761214261208e565b5b6000612151858286016120e1565b925050602061216285828601612117565b9150509250929050565b612175816120b8565b82525050565b612184816120f6565b82525050565b60008160030b9050919050565b6121a08161218a565b82525050565b600060c0820190506121bb600083018961216c565b6121c8602083018861216c565b6121d5604083018761217b565b6121e26060830186612197565b6121ef608083018561216c565b6121fc60a083018461216c565b979650505050505050565b60006020828403121561221d5761221c61208e565b5b600061222b84828501612117565b91505092915050565b6000819050919050565b61224781612234565b82525050565b6000604082019050612262600083018561216c565b61226f602083018461223e565b9392505050565b600060208201905061228b600083018461216c565b92915050565b60006020820190506122a6600083018461223e565b92915050565b6000602082840312156122c2576122c161208e565b5b60006122d0848285016120e1565b91505092915050565b600081519050919050565b600082825260208201905092915050565b60005b838110156123135780820151818401526020810190506122f8565b83811115612322576000848401525b50505050565b6000601f19601f8301169050919050565b6000612344826122d9565b61234e81856122e4565b935061235e8185602086016122f5565b61236781612328565b840191505092915050565b6000602082019050818103600083015261238c8184612339565b905092915050565b61239d81612234565b81146123a857600080fd5b50565b6000813590506123ba81612394565b92915050565b600080604083850312156123d7576123d661208e565b5b60006123e5858286016120e1565b92505060206123f6858286016123ab565b9150509250929050565b600080fd5b600080fd5b7f4e487b7100000000000000000000000000000000000000000000000000000000600052604160045260246000fd5b61244282612328565b810181811067ffffffffffffffff821117156124615761246061240a565b5b80604052505050565b6000612474612084565b90506124808282612439565b919050565b600067ffffffffffffffff8211156124a05761249f61240a565b5b6124a982612328565b9050602081019050919050565b82818337600083830152505050565b60006124d86124d384612485565b61246a565b9050828152602081018484840111156124f4576124f3612405565b5b6124ff8482856124b6565b509392505050565b600082601f83011261251c5761251b612400565b5b813561252c8482602086016124c5565b91505092915050565b60006020828403121561254b5761254a61208e565b5b600082013567ffffffffffffffff81111561256957612568612093565b5b61257584828501612507565b91505092915050565b6000602082840312156125945761259361208e565b5b60006125a2848285016123ab565b91505092915050565b6125b48161218a565b81146125bf57600080fd5b50565b6000813590506125d1816125ab565b92915050565b60008060008060008060c087890312156125f4576125f361208e565b5b600061260289828a016120e1565b965050602061261389828a016120e1565b955050604061262489828a01612117565b945050606061263589828a016125c2565b935050608061264689828a016120e1565b92505060a061265789828a016120e1565b9150509295509295509295565b6000602082019050612679600083018461217b565b92915050565b7f4e487b7100000000000000000000000000000000000000000000000000000000600052603260045260246000fd5b7f4e487b7100000000000000000000000000000000000000000000000000000000600052601160045260246000fd5b60006126e8826120f6565b91507fffffffffffffffffffffffffffffffffffffffffffffffffffffffffffffffff82141561271b5761271a6126ae565b5b600182019050919050565b6000819050919050565b61274161273c826120f6565b612726565b82525050565b60008160601b9050919050565b600061275f82612747565b9050919050565b600061277182612754565b9050919050565b612789612784826120b8565b612766565b82525050565b600061279b8286612730565b6020820191506127ab8285612778565b6014820191506127bb8284612730565b602082019150819050949350505050565b7f4e487b7100000000000000000000000000000000000000000000000000000000600052601260045260246000fd5b6000612806826120f6565b9150612811836120f6565b925082612821576128206127cc565b5b828206905092915050565b60006128388284612778565b60148201915081905092915050565b600081905092915050565b600061285d826122d9565b6128678185612847565b93506128778185602086016122f5565b80840191505092915050565b600061288f8284612852565b915081905092915050565b7f4f6e6c792061646d696e506572736f6e2063616e20616464206120757365722e600082015250565b60006128d06020836122e4565b91506128db8261289a565b602082019050919050565b600060208201905081810360008301526128ff816128c3565b9050919050565b60006129128284612730565b60208201915081905092915050565b600061292c826120f6565b9150612937836120f6565b9250817fffffffffffffffffffffffffffffffffffffffffffffffffffffffffffffffff04831182151516156129705761296f6126ae565b5b828202905092915050565b6000612986826120f6565b9150612991836120f6565b9250827fffffffffffffffffffffffffffffffffffffffffffffffffffffffffffffffff038211156129c6576129c56126ae565b5b828201905092915050565b7f4f6e6c792061646d696e506572736f6e2063616e2072656d6f7665206120757360008201527f65722e0000000000000000000000000000000000000000000000000000000000602082015250565b6000612a2d6023836122e4565b9150612a38826129d1565b604082019050919050565b60006020820190508181036000830152612a5c81612a20565b9050919050565b6000819050919050565b612a7e612a7982612234565b612a63565b82525050565b6000612a908284612a6d565b60208201915081905092915050565b7f4f6e6c792061646d696e506572736f6e2063616e206164642061206e6f64652e600082015250565b6000612ad56020836122e4565b9150612ae082612a9f565b602082019050919050565b60006020820190508181036000830152612b0481612ac8565b9050919050565b6000612b16826120f6565b9150612b21836120f6565b925082821015612b3457612b336126ae565b5b828203905092915050565b7f4e487b7100000000000000000000000000000000000000000000000000000000600052603160045260246000fd5b7f4f6e6c7920612072656769737465726564206e6f64652063616e20777269746560008201527f2061204344522e00000000000000000000000000000000000000000000000000602082015250565b6000612bca6027836122e4565b9150612bd582612b6e565b604082019050919050565b60006020820190508181036000830152612bf981612bbd565b9050919050565b7f4f6e6c792061646d696e506572736f6e2063616e207570646174652061206e6f60008201527f64652e0000000000000000000000000000000000000000000000000000000000602082015250565b6000612c5c6023836122e4565b9150612c6782612c00565b604082019050919050565b60006020820190508181036000830152612c8b81612c4f565b905091905056fea2646970667358221220006a17ca4c30dfe7b9f92d34b4c128bfca943b2af43e31b6de5d30d6a11c884564736f6c634300080b0033",
  "immutableReferences": {},
  "source": "// SPDX-License-Identifier: GPL-3.0\n\npragma solidity >=0.7.0 <0.9.0;\n\n/** \n * @title phone0x\n * @dev Implements voip nodes network management\n */\ncontract phone0x {\n   \n    struct User {\n        bytes32 userVoipCredentials;\n    }\n\n    struct Node {\n        address nodeId;\n        bytes32 nodeIPAddress;\n    }\n\n    struct CDR {\n        address addrCaller;\n        address addrCallee;\n        uint startCallDate;\n        int32 callDuration;\n        address nodeIdCallOperator;\n        address nodeIdCDRWriter;\n    }\n\n    address public adminPerson;\n   \n    mapping(address => User) public users;\n\n    Node[] public nodes;\n    CDR[] public CDRs;\n  \n    /** \n     * @dev Create a new voip network.\n     * @param firstNodeId first node id \n     * @param firstNodeIP first node IP\n     */\n    constructor(address firstNodeId, bytes32  firstNodeIP) {\n        adminPerson = msg.sender;    \n      \n        //initiate the first node    \n        nodes.push(Node({\n            nodeId: firstNodeId,\n            nodeIPAddress: firstNodeIP\n        }));\n    }\n\n\n   function toString(address account) public pure returns(string memory) {\n    return toString(abi.encodePacked(account));\n}\n\nfunction toString(uint256 value) public pure returns(string memory) {\n    return toString(abi.encodePacked(value));\n}\n\nfunction toString(bytes32 value) public pure returns(string memory) {\n    return toString(abi.encodePacked(value));\n}\n\nfunction toString(bytes memory data) public pure returns(string memory) {\n    bytes memory alphabet = \"0123456789abcdef\";\n\n    bytes memory str = new bytes(2 + data.length * 2);\n    str[0] = \"0\";\n    str[1] = \"x\";\n    for (uint i = 0; i < data.length; i++) {\n        str[2+i*2] = alphabet[uint(uint8(data[i] >> 4))];\n        str[3+i*2] = alphabet[uint(uint8(data[i] & 0x0f))];\n    }\n    return string(str);\n}\n\n    /** \n     * @dev Create a new voip node.\n     * @param nodeId node id which is the address of the node \n     * @param nodeIP  IP address or domain name of the node\n     */\n    function addNode(address nodeId, bytes32 nodeIP) public{\n        \n        require(\n             (keccak256(abi.encodePacked(toString(msg.sender))) == keccak256(abi.encodePacked(toString(adminPerson)))) \n            , \"Only adminPerson can add a node.\"\n        );\n\n        for (uint i = 0; i < nodes.length; i++) {\n            if (nodes[i].nodeId == nodeId) {\n                //if node already exists, just return.\n                return;\n            }\n        }\n        \n        //add the new node\n        nodes.push(Node({\n            nodeId: nodeId,\n            nodeIPAddress: nodeIP\n        }));\n\n    }\n\n    /** \n     * @dev Update IP of a a voip node.\n     * @param nodeId node id which is the address of the node \n     * @param nodeIP  new IP address or domain name of the node\n     */\n    function updateNode(address nodeId, bytes32 nodeIP) public{\n\n        require(\n             (keccak256(abi.encodePacked(toString(msg.sender))) == keccak256(abi.encodePacked(toString(adminPerson)))), \n             \"Only adminPerson can update a node.\"\n        );\n\n        for (uint i = 0; i < nodes.length; i++) {\n            if (nodes[i].nodeId == nodeId) {\n                    nodes[i].nodeIPAddress = nodeIP;\n            }\n        }\n    }\n\n    /** \n     * @dev Remove node IP of a a voip node.\n     * @param nodeId node id which is the address of the node \n     */\n    function removeNode(address nodeId) external {\n\n        require(\n             (keccak256(abi.encodePacked(toString(msg.sender))) == keccak256(abi.encodePacked(toString(adminPerson)))), \n            \"Only adminPerson can add a node.\"\n        );\n        \n        uint index;\n        for (uint i = 0; i<nodes.length-1; i++){\n            if (nodes[i].nodeId == nodeId) {\n                index = i;\n            }\n        }\n\n        if (index >= nodes.length) return;\n\n        for (uint i = index; i<nodes.length-1; i++){\n            nodes[i] = nodes[i+1];\n        }\n        nodes.pop();\n    }\n\n    /** \n     * @dev Get the IP of a a voip node.\n     * @param nodeId node id which is the address of the node \n     */\n    function getNodeIP(address nodeId) public view returns (bytes32 nodeIP) {\n\n        nodeIP = \"\";\n        for (uint i = 0; i < nodes.length; i++) {\n            if (nodes[i].nodeId == nodeId) {\n                nodeIP = nodes[i].nodeIPAddress;\n            }\n        }\n        return nodeIP;\n\n    }\n\n    /** \n     * @dev add a new user to the voip network.\n     * @param userId user id which is the wallet address of the user \n     * @param userCreds  user's credentials on the voip node\n     */\n    function addUser(address userId, bytes32 userCreds) public {\n    \n        require(\n             (keccak256(abi.encodePacked(toString(msg.sender))) == keccak256(abi.encodePacked(toString(adminPerson)))), \n            \"Only adminPerson can add a user.\"\n        );       \n        //ignore demand if empty credentials\n        if (userCreds != '') {\n            users[userId].userVoipCredentials = userCreds;\n        }\n    }\n\n    /** \n     * @dev update the credentials of a user.\n     * @param userId user id which is the wallet address of the user \n     * @param userCreds  new user's credentials \n     */\n    function updateUser(address userId, bytes32 userCreds) public {\n    \n        require(\n             (keccak256(abi.encodePacked(toString(msg.sender))) == keccak256(abi.encodePacked(toString(adminPerson)))), \n            \"Only adminPerson can add a user.\"\n        );       \n        //update only if credentials are not empty\n        if (users[userId].userVoipCredentials != '') {\n            users[userId].userVoipCredentials = userCreds;\n        }\n    }\n\n    /** \n     * @dev removce a new user from the voip network.\n     * @param userId user id which is the wallet address of the user \n     */\n    function removeUser(address userId) public {\n        \n         require(\n             (keccak256(abi.encodePacked(toString(msg.sender))) == keccak256(abi.encodePacked(toString(adminPerson)))), \n            \"Only adminPerson can remove a user.\"\n        );     \n\n        delete(users[userId]);\n\n    }\n\n     /** \n     * @dev get credentials of a user.\n     * @param userId user id which is the wallet address of the user \n     */\n    function getUserCreds(address userId) public view returns (bytes32 userCreds){\n\n        userCreds = users[userId].userVoipCredentials;\n        return userCreds;\n\n    }\n\n     /** \n     * @dev Gets a random voip node IP from. This is a temporary solution as it provides a pseudo-random number, VRF function of chainlink should be implemented later\n     */\n    function getRandomNodeIP() public view returns (bytes32 nodeIP) {\n\n        uint maxNumber = nodes.length;\n        uint nodeIndex = uint(keccak256(abi.encodePacked(block.timestamp, msg.sender, block.number))) % (maxNumber);\n\n        nodeIP = nodes[nodeIndex].nodeIPAddress;\n        return nodeIP;\n    \n    } \n\n    /** \n     * @dev Write a CDR (Call Data Record). For every call, a CDR will be written by one node only\n     * @param addrCaller id of the caller\n     * @param addrCallee id of the callee \n     * @param startCallDate start call date \n     * @param callDuration call duration \n     * @param nodeIdCallOperator node id which operated the call \n     * @param nodeIdCDRWriter node id which wrote the CDR \n     */\n    function writeCDR(\n                    address addrCaller, \n                    address addrCallee, \n                    uint startCallDate, \n                    int32 callDuration, \n                    address nodeIdCallOperator, \n                    address nodeIdCDRWriter) public {\n\n        //requires that the sender to be in the list of registered nodes\n        uint i = 0;\n        bool foundNode = false;\n        while (!foundNode && (i < nodes.length)) {\n            if (nodes[i].nodeId == nodeIdCallOperator) {\n                foundNode = true;\n            }\n            i++;\n        }\n        require(\n            foundNode,\n            \"Only a registered node can write a CDR.\"\n        ); \n\n        //check all fields except the nodeIdCDRWriter\n        for (uint j = 0; j < CDRs.length; j++) {\n            if ((CDRs[j].addrCaller == addrCaller) &&\n               (CDRs[j].addrCallee == addrCallee) &&\n               (CDRs[j].startCallDate == startCallDate) &&\n               (CDRs[j].callDuration == callDuration) &&\n               (CDRs[j].nodeIdCallOperator == nodeIdCallOperator)) {\n                   //the same record was already stored, do not store again\n                   return;\n            }\n        }\n\n        //add the new CDR\n        CDRs.push(CDR({\n            addrCaller: addrCaller,\n            addrCallee: addrCallee,\n            startCallDate: startCallDate,\n            callDuration: callDuration,\n            nodeIdCallOperator: nodeIdCallOperator,\n            nodeIdCDRWriter: nodeIdCDRWriter\n        }));\n\n    }\n\n    /** \n     * @dev Gets CDRs count by user. \n     * @param userId id of the caller\n     */\n    function getCDRsCountByUser(address userId) public view returns (uint count){\n \n        uint myCount = 0;\n        for (uint i = 0; i < CDRs.length; i++) {\n            if ( CDRs[i].addrCaller == userId ) {\n                myCount++;\n            }\n        }\n        count = myCount;\n        return count;\n\n    }\n\n    /** \n     * @dev Gets CDRs by userId and index for the same userId. \n     * @param userId id of the caller\n     * @param index index in the array of the same userId\n     */\n    function getCDRsByUserIndex(address userId, uint index) public view returns (\n                                address addrCaller, \n                                address addrCallee, \n                                uint startCallDate, \n                                int32 callDuration, \n                                address nodeIdCallOperator, \n                                address nodeIdCDRWriter ){  \n\n        uint counter;\n        uint i = 0;\n        while ( i < CDRs.length) {\n            if ( CDRs[i].addrCaller == userId ) {\n                if (index == counter) {\n                    return (CDRs[i].addrCaller, \n                            CDRs[i].addrCallee, \n                            CDRs[i].startCallDate, \n                            CDRs[i].callDuration, \n                            CDRs[i].nodeIdCallOperator, \n                            CDRs[i].nodeIdCDRWriter);\n                }\n                counter++;\n            }\n            i++;\n        }\n\n        return (address(0),address(0),0, 0, address(0),address(0));\n\n    }\n\n    /** \n     * @dev Gets CDRs count by node operator. \n     * @param nodeId id of the caller\n     */\n    function getCDRsCountByNodeOperator(address nodeId) public view returns (uint count){\n\n        uint myCount = 0;\n        for (uint i = 0; i < CDRs.length; i++) {\n            if ( CDRs[i].nodeIdCallOperator == nodeId ) {\n                myCount++;\n            }\n        }\n        count = myCount;\n        return count;\n\n    }\n\n    /** \n     * @dev Gets CDRs by node operator and index of the same node operator. \n     * @param nodeId id of the caller\n     * @param index index in the array of the same node operator \n     */\n    function getCDRsByNodeOperatorIndex(address nodeId, uint index) public view returns (\n                                address addrCaller, \n                                address addrCallee, \n                                uint startCallDate, \n                                int32 callDuration, \n                                address nodeIdCallOperator, \n                                address nodeIdCDRWriter\n    ){\n\n        uint counter;\n        uint i = 0;\n        while ( i < CDRs.length) {\n            if ( CDRs[i].nodeIdCallOperator == nodeId ) {\n                if (index == counter) {\n                    return (CDRs[i].addrCaller, \n                            CDRs[i].addrCallee, \n                            CDRs[i].startCallDate, \n                            CDRs[i].callDuration, \n                            CDRs[i].nodeIdCallOperator, \n                            CDRs[i].nodeIdCDRWriter);\n                }\n                counter++;\n            }\n            i++;\n        }\n\n        return (address(0),address(0),0, 0, address(0),address(0));\n\n    }\n\n}\n",
  "sourcePath": "/Users/gilles/phoneOx/contracts/phone0x.sol",
  "compiler": {
    "name": "solc",
    "version": "0.8.11+commit.d7f03943.Emscripten.clang"
  },
  "schemaVersion": "3.4.5",
  "updatedAt": "2022-11-04T06:39:37.603Z",
  "networkType": "ethereum",
  "devdoc": {
    "details": "Implements voip nodes network management",
    "kind": "dev",
    "methods": {
      "addNode(address,bytes32)": {
        "details": "Create a new voip node.",
        "params": {
          "nodeIP": "IP address or domain name of the node",
          "nodeId": "node id which is the address of the node "
        }
      },
      "addUser(address,bytes32)": {
        "details": "add a new user to the voip network.",
        "params": {
          "userCreds": "user's credentials on the voip node",
          "userId": "user id which is the wallet address of the user "
        }
      },
      "constructor": {
        "details": "Create a new voip network.",
        "params": {
          "firstNodeIP": "first node IP",
          "firstNodeId": "first node id "
        }
      },
      "getCDRsByNodeOperatorIndex(address,uint256)": {
        "details": "Gets CDRs by node operator and index of the same node operator. ",
        "params": {
          "index": "index in the array of the same node operator ",
          "nodeId": "id of the caller"
        }
      },
      "getCDRsByUserIndex(address,uint256)": {
        "details": "Gets CDRs by userId and index for the same userId. ",
        "params": {
          "index": "index in the array of the same userId",
          "userId": "id of the caller"
        }
      },
      "getCDRsCountByNodeOperator(address)": {
        "details": "Gets CDRs count by node operator. ",
        "params": {
          "nodeId": "id of the caller"
        }
      },
      "getCDRsCountByUser(address)": {
        "details": "Gets CDRs count by user. ",
        "params": {
          "userId": "id of the caller"
        }
      },
      "getNodeIP(address)": {
        "details": "Get the IP of a a voip node.",
        "params": {
          "nodeId": "node id which is the address of the node "
        }
      },
      "getRandomNodeIP()": {
        "details": "Gets a random voip node IP from. This is a temporary solution as it provides a pseudo-random number, VRF function of chainlink should be implemented later"
      },
      "getUserCreds(address)": {
        "details": "get credentials of a user.",
        "params": {
          "userId": "user id which is the wallet address of the user "
        }
      },
      "removeNode(address)": {
        "details": "Remove node IP of a a voip node.",
        "params": {
          "nodeId": "node id which is the address of the node "
        }
      },
      "removeUser(address)": {
        "details": "removce a new user from the voip network.",
        "params": {
          "userId": "user id which is the wallet address of the user "
        }
      },
      "updateNode(address,bytes32)": {
        "details": "Update IP of a a voip node.",
        "params": {
          "nodeIP": "new IP address or domain name of the node",
          "nodeId": "node id which is the address of the node "
        }
      },
      "updateUser(address,bytes32)": {
        "details": "update the credentials of a user.",
        "params": {
          "userCreds": "new user's credentials ",
          "userId": "user id which is the wallet address of the user "
        }
      },
      "writeCDR(address,address,uint256,int32,address,address)": {
        "details": "Write a CDR (Call Data Record). For every call, a CDR will be written by one node only",
        "params": {
          "addrCallee": "id of the callee ",
          "addrCaller": "id of the caller",
          "callDuration": "call duration ",
          "nodeIdCDRWriter": "node id which wrote the CDR ",
          "nodeIdCallOperator": "node id which operated the call ",
          "startCallDate": "start call date "
        }
      }
    },
    "title": "phone0x",
    "version": 1
  },
  "userdoc": {
    "kind": "user",
    "methods": {},
    "version": 1
  }
}