{
  "contractName": "phone0x",
  "abi": [
    {
      "inputs": [
        {
          "internalType": "address",
          "name": "firstNodeId",
          "type": "address"
        },
        {
          "internalType": "bytes32",
          "name": "firstNodeIP",
          "type": "bytes32"
        }
      ],
      "stateMutability": "nonpayable",
      "type": "constructor"
    },
    {
      "inputs": [
        {
          "internalType": "uint256",
          "name": "",
          "type": "uint256"
        }
      ],
      "name": "CDRs",
      "outputs": [
        {
          "internalType": "address",
          "name": "addrCaller",
          "type": "address"
        },
        {
          "internalType": "address",
          "name": "addrCallee",
          "type": "address"
        },
        {
          "internalType": "uint256",
          "name": "startCallDate",
          "type": "uint256"
        },
        {
          "internalType": "int32",
          "name": "callDuration",
          "type": "int32"
        },
        {
          "internalType": "address",
          "name": "nodeIdCallOperator",
          "type": "address"
        },
        {
          "internalType": "address",
          "name": "nodeIdCDRWriter",
          "type": "address"
        }
      ],
      "stateMutability": "view",
      "type": "function",
      "constant": true
    },
    {
      "inputs": [],
      "name": "adminPerson",
      "outputs": [
        {
          "internalType": "address",
          "name": "",
          "type": "address"
        }
      ],
      "stateMutability": "view",
      "type": "function",
      "constant": true
    },
    {
      "inputs": [
        {
          "internalType": "uint256",
          "name": "",
          "type": "uint256"
        }
      ],
      "name": "nodes",
      "outputs": [
        {
          "internalType": "address",
          "name": "nodeId",
          "type": "address"
        },
        {
          "internalType": "bytes32",
          "name": "nodeIPAddress",
          "type": "bytes32"
        }
      ],
      "stateMutability": "view",
      "type": "function",
      "constant": true
    },
    {
      "inputs": [
        {
          "internalType": "address",
          "name": "",
          "type": "address"
        }
      ],
      "name": "users",
      "outputs": [
        {
          "internalType": "bytes32",
          "name": "userVoipCredentials",
          "type": "bytes32"
        }
      ],
      "stateMutability": "view",
      "type": "function",
      "constant": true
    },
    {
      "inputs": [
        {
          "internalType": "address",
          "name": "nodeId",
          "type": "address"
        },
        {
          "internalType": "bytes32",
          "name": "nodeIP",
          "type": "bytes32"
        }
      ],
      "name": "addNode",
      "outputs": [],
      "stateMutability": "nonpayable",
      "type": "function"
    },
    {
      "inputs": [
        {
          "internalType": "address",
          "name": "nodeId",
          "type": "address"
        },
        {
          "internalType": "bytes32",
          "name": "nodeIP",
          "type": "bytes32"
        }
      ],
      "name": "updateNode",
      "outputs": [],
      "stateMutability": "nonpayable",
      "type": "function"
    },
    {
      "inputs": [
        {
          "internalType": "address",
          "name": "nodeId",
          "type": "address"
        }
      ],
      "name": "removeNode",
      "outputs": [],
      "stateMutability": "nonpayable",
      "type": "function"
    },
    {
      "inputs": [
        {
          "internalType": "address",
          "name": "nodeId",
          "type": "address"
        }
      ],
      "name": "getNodeIP",
      "outputs": [
        {
          "internalType": "bytes32",
          "name": "nodeIP",
          "type": "bytes32"
        }
      ],
      "stateMutability": "view",
      "type": "function",
      "constant": true
    },
    {
      "inputs": [
        {
          "internalType": "address",
          "name": "userId",
          "type": "address"
        },
        {
          "internalType": "bytes32",
          "name": "userCreds",
          "type": "bytes32"
        }
      ],
      "name": "addUser",
      "outputs": [],
      "stateMutability": "nonpayable",
      "type": "function"
    },
    {
      "inputs": [
        {
          "internalType": "address",
          "name": "userId",
          "type": "address"
        },
        {
          "internalType": "bytes32",
          "name": "userCreds",
          "type": "bytes32"
        }
      ],
      "name": "updateUser",
      "outputs": [],
      "stateMutability": "nonpayable",
      "type": "function"
    },
    {
      "inputs": [
        {
          "internalType": "address",
          "name": "userId",
          "type": "address"
        }
      ],
      "name": "removeUser",
      "outputs": [],
      "stateMutability": "nonpayable",
      "type": "function"
    },
    {
      "inputs": [
        {
          "internalType": "address",
          "name": "userId",
          "type": "address"
        }
      ],
      "name": "getUserCreds",
      "outputs": [
        {
          "internalType": "bytes32",
          "name": "userCreds",
          "type": "bytes32"
        }
      ],
      "stateMutability": "view",
      "type": "function",
      "constant": true
    },
    {
      "inputs": [],
      "name": "getRandomNodeIP",
      "outputs": [
        {
          "internalType": "bytes32",
          "name": "nodeIP",
          "type": "bytes32"
        }
      ],
      "stateMutability": "view",
      "type": "function",
      "constant": true
    },
    {
      "inputs": [
        {
          "internalType": "address",
          "name": "addrCaller",
          "type": "address"
        },
        {
          "internalType": "address",
          "name": "addrCallee",
          "type": "address"
        },
        {
          "internalType": "uint256",
          "name": "startCallDate",
          "type": "uint256"
        },
        {
          "internalType": "int32",
          "name": "callDuration",
          "type": "int32"
        },
        {
          "internalType": "address",
          "name": "nodeIdCallOperator",
          "type": "address"
        },
        {
          "internalType": "address",
          "name": "nodeIdCDRWriter",
          "type": "address"
        }
      ],
      "name": "writeCDR",
      "outputs": [],
      "stateMutability": "nonpayable",
      "type": "function"
    },
    {
      "inputs": [
        {
          "internalType": "address",
          "name": "userId",
          "type": "address"
        }
      ],
      "name": "getCDRsCountByUser",
      "outputs": [
        {
          "internalType": "uint256",
          "name": "count",
          "type": "uint256"
        }
      ],
      "stateMutability": "view",
      "type": "function",
      "constant": true
    },
    {
      "inputs": [
        {
          "internalType": "address",
          "name": "userId",
          "type": "address"
        },
        {
          "internalType": "uint256",
          "name": "index",
          "type": "uint256"
        }
      ],
      "name": "getCDRsByUserIndex",
      "outputs": [
        {
          "internalType": "address",
          "name": "addrCaller",
          "type": "address"
        },
        {
          "internalType": "address",
          "name": "addrCallee",
          "type": "address"
        },
        {
          "internalType": "uint256",
          "name": "startCallDate",
          "type": "uint256"
        },
        {
          "internalType": "int32",
          "name": "callDuration",
          "type": "int32"
        },
        {
          "internalType": "address",
          "name": "nodeIdCallOperator",
          "type": "address"
        },
        {
          "internalType": "address",
          "name": "nodeIdCDRWriter",
          "type": "address"
        }
      ],
      "stateMutability": "view",
      "type": "function",
      "constant": true
    },
    {
      "inputs": [
        {
          "internalType": "address",
          "name": "nodeId",
          "type": "address"
        }
      ],
      "name": "getCDRsCountByNodeOperator",
      "outputs": [
        {
          "internalType": "uint256",
          "name": "count",
          "type": "uint256"
        }
      ],
      "stateMutability": "view",
      "type": "function",
      "constant": true
    },
    {
      "inputs": [
        {
          "internalType": "address",
          "name": "nodeId",
          "type": "address"
        },
        {
          "internalType": "uint256",
          "name": "index",
          "type": "uint256"
        }
      ],
      "name": "getCDRsByNodeOperatorIndex",
      "outputs": [
        {
          "internalType": "address",
          "name": "addrCaller",
          "type": "address"
        },
        {
          "internalType": "address",
          "name": "addrCallee",
          "type": "address"
        },
        {
          "internalType": "uint256",
          "name": "startCallDate",
          "type": "uint256"
        },
        {
          "internalType": "int32",
          "name": "callDuration",
          "type": "int32"
        },
        {
          "internalType": "address",
          "name": "nodeIdCallOperator",
          "type": "address"
        },
        {
          "internalType": "address",
          "name": "nodeIdCDRWriter",
          "type": "address"
        }
      ],
      "stateMutability": "view",
      "type": "function",
      "constant": true
    }
  ],
  "bytecode": "0x60806040523480156200001157600080fd5b5060405162002ad938038062002ad98339818101604052810190620000379190620001cd565b336000806101000a81548173ffffffffffffffffffffffffffffffffffffffff021916908373ffffffffffffffffffffffffffffffffffffffff160217905550600260405180604001604052808473ffffffffffffffffffffffffffffffffffffffff16815260200183815250908060018154018082558091505060019003906000526020600020906002020160009091909190915060008201518160000160006101000a81548173ffffffffffffffffffffffffffffffffffffffff021916908373ffffffffffffffffffffffffffffffffffffffff160217905550602082015181600101555050505062000214565b600080fd5b600073ffffffffffffffffffffffffffffffffffffffff82169050919050565b60006200015a826200012d565b9050919050565b6200016c816200014d565b81146200017857600080fd5b50565b6000815190506200018c8162000161565b92915050565b6000819050919050565b620001a78162000192565b8114620001b357600080fd5b50565b600081519050620001c7816200019c565b92915050565b60008060408385031215620001e757620001e662000128565b5b6000620001f7858286016200017b565b92505060206200020a85828601620001b6565b9150509250929050565b6128b580620002246000396000f3fe608060405234801561001057600080fd5b50600436106101165760003560e01c8063b2b99ec9116100a2578063bc1b098711610071578063bc1b0987146102fa578063c80baa4d14610316578063d9cec2da14610346578063e85f45dd14610376578063ebeea348146103ab57610116565b8063b2b99ec914610276578063b4be4f8a14610292578063b4eb9a42146102ae578063b9ce3280146102ca57610116565b80634753f5da116100e95780634753f5da146101d45780635e873d0f146101f257806364f42a991461020e578063985751881461022a578063a87430ba1461024657610116565b806304fb19bb1461011b5780631c53c280146101505780633262c1c514610181578063429e9f431461019f575b600080fd5b61013560048036038101906101309190611e45565b6103db565b60405161014796959493929190611ebf565b60405180910390f35b61016a60048036038101906101659190611f20565b6106d0565b604051610178929190611f66565b60405180910390f35b610189610724565b6040516101969190611f8f565b60405180910390f35b6101b960048036038101906101b49190611f20565b610748565b6040516101cb96959493929190611ebf565b60405180910390f35b6101dc610821565b6040516101e99190611faa565b60405180910390f35b61020c60048036038101906102079190611ff1565b610896565b005b61022860048036038101906102239190611ff1565b6109ba565b005b610244600480360381019061023f9190612031565b610a9c565b005b610260600480360381019061025b9190612031565b610b77565b60405161026d9190611faa565b60405180910390f35b610290600480360381019061028b9190612031565b610b95565b005b6102ac60048036038101906102a79190611ff1565b610e3d565b005b6102c860048036038101906102c3919061208a565b61101c565b005b6102e460048036038101906102df9190612031565b611528565b6040516102f19190611faa565b60405180910390f35b610314600480360381019061030f9190611ff1565b6115f4565b005b610330600480360381019061032b9190612031565b61174e565b60405161033d9190611faa565b60405180910390f35b610360600480360381019061035b9190612031565b611829565b60405161036d9190612117565b60405180910390f35b610390600480360381019061038b9190611e45565b611970565b6040516103a296959493929190611ebf565b60405180910390f35b6103c560048036038101906103c09190612031565b611c65565b6040516103d29190612117565b60405180910390f35b60008060008060008060008054906101000a900473ffffffffffffffffffffffffffffffffffffffff1673ffffffffffffffffffffffffffffffffffffffff163373ffffffffffffffffffffffffffffffffffffffff1614610472576040517f08c379a0000000000000000000000000000000000000000000000000000000008152600401610469906121b5565b60405180910390fd5b600080600090505b6003805490508110156106ae578973ffffffffffffffffffffffffffffffffffffffff16600382815481106104b2576104b16121d5565b5b906000526020600020906005020160000160009054906101000a900473ffffffffffffffffffffffffffffffffffffffff1673ffffffffffffffffffffffffffffffffffffffff16141561069b578189141561068c576003818154811061051c5761051b6121d5565b5b906000526020600020906005020160000160009054906101000a900473ffffffffffffffffffffffffffffffffffffffff1660038281548110610562576105616121d5565b5b906000526020600020906005020160010160009054906101000a900473ffffffffffffffffffffffffffffffffffffffff16600383815481106105a8576105a76121d5565b5b906000526020600020906005020160020154600384815481106105ce576105cd6121d5565b5b906000526020600020906005020160030160009054906101000a900460030b60038581548110610601576106006121d5565b5b906000526020600020906005020160030160049054906101000a900473ffffffffffffffffffffffffffffffffffffffff1660038681548110610647576106466121d5565b5b906000526020600020906005020160040160009054906101000a900473ffffffffffffffffffffffffffffffffffffffff1697509750975097509750975050506106c6565b818061069790612233565b9250505b80806106a690612233565b91505061047a565b60008060008060008097509750975097509750975050505b9295509295509295565b600281815481106106e057600080fd5b90600052602060002090600202016000915090508060000160009054906101000a900473ffffffffffffffffffffffffffffffffffffffff16908060010154905082565b60008054906101000a900473ffffffffffffffffffffffffffffffffffffffff1681565b6003818154811061075857600080fd5b90600052602060002090600502016000915090508060000160009054906101000a900473ffffffffffffffffffffffffffffffffffffffff16908060010160009054906101000a900473ffffffffffffffffffffffffffffffffffffffff16908060020154908060030160009054906101000a900460030b908060030160049054906101000a900473ffffffffffffffffffffffffffffffffffffffff16908060040160009054906101000a900473ffffffffffffffffffffffffffffffffffffffff16905086565b6000806002805490509050600081423343604051602001610844939291906122e5565b6040516020818303038152906040528051906020012060001c6108679190612351565b90506002818154811061087d5761087c6121d5565b5b9060005260206000209060020201600101549250505090565b60008054906101000a900473ffffffffffffffffffffffffffffffffffffffff1673ffffffffffffffffffffffffffffffffffffffff163373ffffffffffffffffffffffffffffffffffffffff1614610924576040517f08c379a000000000000000000000000000000000000000000000000000000000815260040161091b906123ce565b60405180910390fd5b6000600160008473ffffffffffffffffffffffffffffffffffffffff1673ffffffffffffffffffffffffffffffffffffffff16815260200190815260200160002060000154146109b65780600160008473ffffffffffffffffffffffffffffffffffffffff1673ffffffffffffffffffffffffffffffffffffffff168152602001908152602001600020600001819055505b5050565b60008054906101000a900473ffffffffffffffffffffffffffffffffffffffff1673ffffffffffffffffffffffffffffffffffffffff163373ffffffffffffffffffffffffffffffffffffffff1614610a48576040517f08c379a0000000000000000000000000000000000000000000000000000000008152600401610a3f906123ce565b60405180910390fd5b60008114610a985780600160008473ffffffffffffffffffffffffffffffffffffffff1673ffffffffffffffffffffffffffffffffffffffff168152602001908152602001600020600001819055505b5050565b60008054906101000a900473ffffffffffffffffffffffffffffffffffffffff1673ffffffffffffffffffffffffffffffffffffffff163373ffffffffffffffffffffffffffffffffffffffff1614610b2a576040517f08c379a0000000000000000000000000000000000000000000000000000000008152600401610b2190612460565b60405180910390fd5b600160008273ffffffffffffffffffffffffffffffffffffffff1673ffffffffffffffffffffffffffffffffffffffff168152602001908152602001600020600080820160009055505050565b60016020528060005260406000206000915090508060000154905081565b60008054906101000a900473ffffffffffffffffffffffffffffffffffffffff1673ffffffffffffffffffffffffffffffffffffffff163373ffffffffffffffffffffffffffffffffffffffff1614610c23576040517f08c379a0000000000000000000000000000000000000000000000000000000008152600401610c1a906124cc565b60405180910390fd5b600080600090505b6001600280549050610c3d91906124ec565b811015610cd4578273ffffffffffffffffffffffffffffffffffffffff1660028281548110610c6f57610c6e6121d5565b5b906000526020600020906002020160000160009054906101000a900473ffffffffffffffffffffffffffffffffffffffff1673ffffffffffffffffffffffffffffffffffffffff161415610cc1578091505b8080610ccc90612233565b915050610c2b565b506002805490508110610ce75750610e3a565b60008190505b6001600280549050610cff91906124ec565b811015610ddd576002600182610d159190612520565b81548110610d2657610d256121d5565b5b906000526020600020906002020160028281548110610d4857610d476121d5565b5b90600052602060002090600202016000820160009054906101000a900473ffffffffffffffffffffffffffffffffffffffff168160000160006101000a81548173ffffffffffffffffffffffffffffffffffffffff021916908373ffffffffffffffffffffffffffffffffffffffff160217905550600182015481600101559050508080610dd590612233565b915050610ced565b506002805480610df057610def612576565b5b6001900381819060005260206000209060020201600080820160006101000a81549073ffffffffffffffffffffffffffffffffffffffff0219169055600182016000905550509055505b50565b60008054906101000a900473ffffffffffffffffffffffffffffffffffffffff1673ffffffffffffffffffffffffffffffffffffffff163373ffffffffffffffffffffffffffffffffffffffff1614610ecb576040517f08c379a0000000000000000000000000000000000000000000000000000000008152600401610ec2906124cc565b60405180910390fd5b60005b600280549050811015610f6d578273ffffffffffffffffffffffffffffffffffffffff1660028281548110610f0657610f056121d5565b5b906000526020600020906002020160000160009054906101000a900473ffffffffffffffffffffffffffffffffffffffff1673ffffffffffffffffffffffffffffffffffffffff161415610f5a5750611018565b8080610f6590612233565b915050610ece565b50600260405180604001604052808473ffffffffffffffffffffffffffffffffffffffff16815260200183815250908060018154018082558091505060019003906000526020600020906002020160009091909190915060008201518160000160006101000a81548173ffffffffffffffffffffffffffffffffffffffff021916908373ffffffffffffffffffffffffffffffffffffffff1602179055506020820151816001015550505b5050565b6000805b80158015611032575060028054905082105b156110c8578373ffffffffffffffffffffffffffffffffffffffff1660028381548110611062576110616121d5565b5b906000526020600020906002020160000160009054906101000a900473ffffffffffffffffffffffffffffffffffffffff1673ffffffffffffffffffffffffffffffffffffffff1614156110b557600190505b81806110c090612233565b925050611020565b80611108576040517f08c379a00000000000000000000000000000000000000000000000000000000081526004016110ff90612617565b60405180910390fd5b60005b600380549050811015611317578873ffffffffffffffffffffffffffffffffffffffff1660038281548110611143576111426121d5565b5b906000526020600020906005020160000160009054906101000a900473ffffffffffffffffffffffffffffffffffffffff1673ffffffffffffffffffffffffffffffffffffffff1614801561120857508773ffffffffffffffffffffffffffffffffffffffff16600382815481106111be576111bd6121d5565b5b906000526020600020906005020160010160009054906101000a900473ffffffffffffffffffffffffffffffffffffffff1673ffffffffffffffffffffffffffffffffffffffff16145b801561123857508660038281548110611224576112236121d5565b5b906000526020600020906005020160020154145b801561127b57508560030b60038281548110611257576112566121d5565b5b906000526020600020906005020160030160009054906101000a900460030b60030b145b80156112f757508473ffffffffffffffffffffffffffffffffffffffff16600382815481106112ad576112ac6121d5565b5b906000526020600020906005020160030160049054906101000a900473ffffffffffffffffffffffffffffffffffffffff1673ffffffffffffffffffffffffffffffffffffffff16145b1561130457505050611520565b808061130f90612233565b91505061110b565b5060036040518060c001604052808a73ffffffffffffffffffffffffffffffffffffffff1681526020018973ffffffffffffffffffffffffffffffffffffffff1681526020018881526020018760030b81526020018673ffffffffffffffffffffffffffffffffffffffff1681526020018573ffffffffffffffffffffffffffffffffffffffff16815250908060018154018082558091505060019003906000526020600020906005020160009091909190915060008201518160000160006101000a81548173ffffffffffffffffffffffffffffffffffffffff021916908373ffffffffffffffffffffffffffffffffffffffff16021790555060208201518160010160006101000a81548173ffffffffffffffffffffffffffffffffffffffff021916908373ffffffffffffffffffffffffffffffffffffffff1602179055506040820151816002015560608201518160030160006101000a81548163ffffffff021916908360030b63ffffffff16021790555060808201518160030160046101000a81548173ffffffffffffffffffffffffffffffffffffffff021916908373ffffffffffffffffffffffffffffffffffffffff16021790555060a08201518160040160006101000a81548173ffffffffffffffffffffffffffffffffffffffff021916908373ffffffffffffffffffffffffffffffffffffffff160217905550505050505b505050505050565b6000805b6002805490508110156115ee578273ffffffffffffffffffffffffffffffffffffffff1660028281548110611564576115636121d5565b5b906000526020600020906002020160000160009054906101000a900473ffffffffffffffffffffffffffffffffffffffff1673ffffffffffffffffffffffffffffffffffffffff1614156115db57600281815481106115c6576115c56121d5565b5b90600052602060002090600202016001015491505b80806115e690612233565b91505061152c565b50919050565b60008054906101000a900473ffffffffffffffffffffffffffffffffffffffff1673ffffffffffffffffffffffffffffffffffffffff163373ffffffffffffffffffffffffffffffffffffffff1614611682576040517f08c379a0000000000000000000000000000000000000000000000000000000008152600401611679906126a9565b60405180910390fd5b60005b600280549050811015611749578273ffffffffffffffffffffffffffffffffffffffff16600282815481106116bd576116bc6121d5565b5b906000526020600020906002020160000160009054906101000a900473ffffffffffffffffffffffffffffffffffffffff1673ffffffffffffffffffffffffffffffffffffffff1614156117365781600282815481106117205761171f6121d5565b5b9060005260206000209060020201600101819055505b808061174190612233565b915050611685565b505050565b60008060009054906101000a900473ffffffffffffffffffffffffffffffffffffffff1673ffffffffffffffffffffffffffffffffffffffff163373ffffffffffffffffffffffffffffffffffffffff16146117df576040517f08c379a00000000000000000000000000000000000000000000000000000000081526004016117d69061273b565b60405180910390fd5b600160008373ffffffffffffffffffffffffffffffffffffffff1673ffffffffffffffffffffffffffffffffffffffff168152602001908152602001600020600001549050919050565b60008060009054906101000a900473ffffffffffffffffffffffffffffffffffffffff1673ffffffffffffffffffffffffffffffffffffffff163373ffffffffffffffffffffffffffffffffffffffff16146118ba576040517f08c379a00000000000000000000000000000000000000000000000000000000081526004016118b1906127cd565b60405180910390fd5b6000805b600380549050811015611966578373ffffffffffffffffffffffffffffffffffffffff16600382815481106118f6576118f56121d5565b5b906000526020600020906005020160000160009054906101000a900473ffffffffffffffffffffffffffffffffffffffff1673ffffffffffffffffffffffffffffffffffffffff16141561195357818061194f90612233565b9250505b808061195e90612233565b9150506118be565b5080915050919050565b60008060008060008060008054906101000a900473ffffffffffffffffffffffffffffffffffffffff1673ffffffffffffffffffffffffffffffffffffffff163373ffffffffffffffffffffffffffffffffffffffff1614611a07576040517f08c379a00000000000000000000000000000000000000000000000000000000081526004016119fe9061285f565b60405180910390fd5b600080600090505b600380549050811015611c43578973ffffffffffffffffffffffffffffffffffffffff1660038281548110611a4757611a466121d5565b5b906000526020600020906005020160030160049054906101000a900473ffffffffffffffffffffffffffffffffffffffff1673ffffffffffffffffffffffffffffffffffffffff161415611c305781891415611c215760038181548110611ab157611ab06121d5565b5b906000526020600020906005020160000160009054906101000a900473ffffffffffffffffffffffffffffffffffffffff1660038281548110611af757611af66121d5565b5b906000526020600020906005020160010160009054906101000a900473ffffffffffffffffffffffffffffffffffffffff1660038381548110611b3d57611b3c6121d5565b5b90600052602060002090600502016002015460038481548110611b6357611b626121d5565b5b906000526020600020906005020160030160009054906101000a900460030b60038581548110611b9657611b956121d5565b5b906000526020600020906005020160030160049054906101000a900473ffffffffffffffffffffffffffffffffffffffff1660038681548110611bdc57611bdb6121d5565b5b906000526020600020906005020160040160009054906101000a900473ffffffffffffffffffffffffffffffffffffffff169750975097509750975097505050611c5b565b8180611c2c90612233565b9250505b8080611c3b90612233565b915050611a0f565b60008060008060008097509750975097509750975050505b9295509295509295565b60008060009054906101000a900473ffffffffffffffffffffffffffffffffffffffff1673ffffffffffffffffffffffffffffffffffffffff163373ffffffffffffffffffffffffffffffffffffffff1614611cf6576040517f08c379a0000000000000000000000000000000000000000000000000000000008152600401611ced906127cd565b60405180910390fd5b6000805b600380549050811015611da2578373ffffffffffffffffffffffffffffffffffffffff1660038281548110611d3257611d316121d5565b5b906000526020600020906005020160030160049054906101000a900473ffffffffffffffffffffffffffffffffffffffff1673ffffffffffffffffffffffffffffffffffffffff161415611d8f578180611d8b90612233565b9250505b8080611d9a90612233565b915050611cfa565b5080915050919050565b600080fd5b600073ffffffffffffffffffffffffffffffffffffffff82169050919050565b6000611ddc82611db1565b9050919050565b611dec81611dd1565b8114611df757600080fd5b50565b600081359050611e0981611de3565b92915050565b6000819050919050565b611e2281611e0f565b8114611e2d57600080fd5b50565b600081359050611e3f81611e19565b92915050565b60008060408385031215611e5c57611e5b611dac565b5b6000611e6a85828601611dfa565b9250506020611e7b85828601611e30565b9150509250929050565b611e8e81611dd1565b82525050565b611e9d81611e0f565b82525050565b60008160030b9050919050565b611eb981611ea3565b82525050565b600060c082019050611ed46000830189611e85565b611ee16020830188611e85565b611eee6040830187611e94565b611efb6060830186611eb0565b611f086080830185611e85565b611f1560a0830184611e85565b979650505050505050565b600060208284031215611f3657611f35611dac565b5b6000611f4484828501611e30565b91505092915050565b6000819050919050565b611f6081611f4d565b82525050565b6000604082019050611f7b6000830185611e85565b611f886020830184611f57565b9392505050565b6000602082019050611fa46000830184611e85565b92915050565b6000602082019050611fbf6000830184611f57565b92915050565b611fce81611f4d565b8114611fd957600080fd5b50565b600081359050611feb81611fc5565b92915050565b6000806040838503121561200857612007611dac565b5b600061201685828601611dfa565b925050602061202785828601611fdc565b9150509250929050565b60006020828403121561204757612046611dac565b5b600061205584828501611dfa565b91505092915050565b61206781611ea3565b811461207257600080fd5b50565b6000813590506120848161205e565b92915050565b60008060008060008060c087890312156120a7576120a6611dac565b5b60006120b589828a01611dfa565b96505060206120c689828a01611dfa565b95505060406120d789828a01611e30565b94505060606120e889828a01612075565b93505060806120f989828a01611dfa565b92505060a061210a89828a01611dfa565b9150509295509295509295565b600060208201905061212c6000830184611e94565b92915050565b600082825260208201905092915050565b7f4f6e6c792061646d696e506572736f6e2063616e20676574206120434452732060008201527f7573657220696e666f2e00000000000000000000000000000000000000000000602082015250565b600061219f602a83612132565b91506121aa82612143565b604082019050919050565b600060208201905081810360008301526121ce81612192565b9050919050565b7f4e487b7100000000000000000000000000000000000000000000000000000000600052603260045260246000fd5b7f4e487b7100000000000000000000000000000000000000000000000000000000600052601160045260246000fd5b600061223e82611e0f565b91507fffffffffffffffffffffffffffffffffffffffffffffffffffffffffffffffff82141561227157612270612204565b5b600182019050919050565b6000819050919050565b61229761229282611e0f565b61227c565b82525050565b60008160601b9050919050565b60006122b58261229d565b9050919050565b60006122c7826122aa565b9050919050565b6122df6122da82611dd1565b6122bc565b82525050565b60006122f18286612286565b60208201915061230182856122ce565b6014820191506123118284612286565b602082019150819050949350505050565b7f4e487b7100000000000000000000000000000000000000000000000000000000600052601260045260246000fd5b600061235c82611e0f565b915061236783611e0f565b92508261237757612376612322565b5b828206905092915050565b7f4f6e6c792061646d696e506572736f6e2063616e20616464206120757365722e600082015250565b60006123b8602083612132565b91506123c382612382565b602082019050919050565b600060208201905081810360008301526123e7816123ab565b9050919050565b7f4f6e6c792061646d696e506572736f6e2063616e2072656d6f7665206120757360008201527f65722e0000000000000000000000000000000000000000000000000000000000602082015250565b600061244a602383612132565b9150612455826123ee565b604082019050919050565b600060208201905081810360008301526124798161243d565b9050919050565b7f4f6e6c792061646d696e506572736f6e2063616e206164642061206e6f64652e600082015250565b60006124b6602083612132565b91506124c182612480565b602082019050919050565b600060208201905081810360008301526124e5816124a9565b9050919050565b60006124f782611e0f565b915061250283611e0f565b92508282101561251557612514612204565b5b828203905092915050565b600061252b82611e0f565b915061253683611e0f565b9250827fffffffffffffffffffffffffffffffffffffffffffffffffffffffffffffffff0382111561256b5761256a612204565b5b828201905092915050565b7f4e487b7100000000000000000000000000000000000000000000000000000000600052603160045260246000fd5b7f4f6e6c7920612072656769737465726564206e6f64652063616e20777269746560008201527f2061204344522e00000000000000000000000000000000000000000000000000602082015250565b6000612601602783612132565b915061260c826125a5565b604082019050919050565b60006020820190508181036000830152612630816125f4565b9050919050565b7f4f6e6c792061646d696e506572736f6e2063616e207570646174652061206e6f60008201527f64652e0000000000000000000000000000000000000000000000000000000000602082015250565b6000612693602383612132565b915061269e82612637565b604082019050919050565b600060208201905081810360008301526126c281612686565b9050919050565b7f4f6e6c792061646d696e506572736f6e2063616e20676574206120757365722060008201527f696e666f2e000000000000000000000000000000000000000000000000000000602082015250565b6000612725602583612132565b9150612730826126c9565b604082019050919050565b6000602082019050818103600083015261275481612718565b9050919050565b7f4f6e6c792061646d696e506572736f6e2063616e20676574206120757365722060008201527f4344527320696e666f2e00000000000000000000000000000000000000000000602082015250565b60006127b7602a83612132565b91506127c28261275b565b604082019050919050565b600060208201905081810360008301526127e6816127aa565b9050919050565b7f4f6e6c792061646d696e506572736f6e2063616e206765742043445273206e6f60008201527f64657320696e666f2e0000000000000000000000000000000000000000000000602082015250565b6000612849602983612132565b9150612854826127ed565b604082019050919050565b600060208201905081810360008301526128788161283c565b905091905056fea26469706673582212208886971d4418dd91be70ee0e28bef6c3470fd5aef7818666c60c54261333dc8964736f6c634300080b0033",
  "immutableReferences": {},
  "source": "// SPDX-License-Identifier: GPL-3.0\n\npragma solidity >=0.7.0 <0.9.0;\n\n/** \n * @title phone0x\n * @dev Implements voip nodes network management\n */\ncontract phone0x {\n   \n    struct User {\n        bytes32 userVoipCredentials;\n    }\n\n    struct Node {\n        address nodeId;\n        bytes32 nodeIPAddress;\n    }\n\n    struct CDR {\n        address addrCaller;\n        address addrCallee;\n        uint startCallDate;\n        int32 callDuration;\n        address nodeIdCallOperator;\n        address nodeIdCDRWriter;\n    }\n\n    address public adminPerson;\n   \n    mapping(address => User) public users;\n\n    Node[] public nodes;\n    CDR[] public CDRs;\n  \n    /** \n     * @dev Create a new voip network.\n     * @param firstNodeId first node id \n     * @param firstNodeIP first node IP\n     */\n    constructor(address firstNodeId, bytes32  firstNodeIP) {\n        adminPerson = msg.sender;    \n      \n        //initiate the first node    \n        nodes.push(Node({\n            nodeId: firstNodeId,\n            nodeIPAddress: firstNodeIP\n        }));\n    }\n\n    /** \n     * @dev Create a new voip node.\n     * @param nodeId node id which is the address of the node \n     * @param nodeIP  IP address or domain name of the node\n     */\n    function addNode(address nodeId, bytes32 nodeIP) public{\n        \n        require(\n            msg.sender == adminPerson, \"Only adminPerson can add a node.\"\n        );\n\n        for (uint i = 0; i < nodes.length; i++) {\n            if (nodes[i].nodeId == nodeId) {\n                //if node already exists, just return.\n                return;\n            }\n        }\n        \n        //add the new node\n        nodes.push(Node({\n            nodeId: nodeId,\n            nodeIPAddress: nodeIP\n        }));\n\n    }\n\n    /** \n     * @dev Update IP of a a voip node.\n     * @param nodeId node id which is the address of the node \n     * @param nodeIP  new IP address or domain name of the node\n     */\n    function updateNode(address nodeId, bytes32 nodeIP) public{\n\n        require(\n            msg.sender == adminPerson, \"Only adminPerson can update a node.\"\n        );\n\n        for (uint i = 0; i < nodes.length; i++) {\n            if (nodes[i].nodeId == nodeId) {\n                    nodes[i].nodeIPAddress = nodeIP;\n            }\n        }\n    }\n\n    /** \n     * @dev Remove node IP of a a voip node.\n     * @param nodeId node id which is the address of the node \n     */\n    function removeNode(address nodeId) external {\n\n        require(\n            msg.sender == adminPerson,\n            \"Only adminPerson can add a node.\"\n        );\n        \n        uint index;\n        for (uint i = 0; i<nodes.length-1; i++){\n            if (nodes[i].nodeId == nodeId) {\n                index = i;\n            }\n        }\n\n        if (index >= nodes.length) return;\n\n        for (uint i = index; i<nodes.length-1; i++){\n            nodes[i] = nodes[i+1];\n        }\n        nodes.pop();\n    }\n\n    /** \n     * @dev Get the IP of a a voip node.\n     * @param nodeId node id which is the address of the node \n     */\n    function getNodeIP(address nodeId) public view returns (bytes32 nodeIP) {\n    \n        // require(\n        //     msg.sender == adminPerson,\n        //     \"Only adminPerson can get a node info.\"\n        // );       \n\n        nodeIP = \"\";\n        for (uint i = 0; i < nodes.length; i++) {\n            if (nodes[i].nodeId == nodeId) {\n                nodeIP = nodes[i].nodeIPAddress;\n            }\n        }\n        return nodeIP;\n\n    }\n\n    /** \n     * @dev add a new user to the voip network.\n     * @param userId user id which is the wallet address of the user \n     * @param userCreds  user's credentials on the voip node\n     */\n    function addUser(address userId, bytes32 userCreds) public {\n    \n        require(\n            msg.sender == adminPerson,\n            \"Only adminPerson can add a user.\"\n        );       \n        //ignore demand if empty credentials\n        if (userCreds != '') {\n            users[userId].userVoipCredentials = userCreds;\n        }\n    }\n\n    /** \n     * @dev update the credentials of a user.\n     * @param userId user id which is the wallet address of the user \n     * @param userCreds  new user's credentials \n     */\n    function updateUser(address userId, bytes32 userCreds) public {\n    \n        require(\n            msg.sender == adminPerson,\n            \"Only adminPerson can add a user.\"\n        );       \n        //update only if credentials are not empty\n        if (users[userId].userVoipCredentials != '') {\n            users[userId].userVoipCredentials = userCreds;\n        }\n    }\n\n    /** \n     * @dev removce a new user from the voip network.\n     * @param userId user id which is the wallet address of the user \n     */\n    function removeUser(address userId) public {\n        \n         require(\n            msg.sender == adminPerson,\n            \"Only adminPerson can remove a user.\"\n        );     \n\n        delete(users[userId]);\n\n    }\n\n     /** \n     * @dev get credentials of a user.\n     * @param userId user id which is the wallet address of the user \n     */\n    function getUserCreds(address userId) public view returns (bytes32 userCreds){\n    \n        require(\n            msg.sender == adminPerson,\n            \"Only adminPerson can get a user info.\"\n        );       \n\n        userCreds = users[userId].userVoipCredentials;\n        return userCreds;\n\n    }\n\n     /** \n     * @dev Gets a random voip node IP from. This is a temporary solution as it provides a pseudo-random number, VRF function of chainlink should be implemented later\n     */\n    function getRandomNodeIP() public view returns (bytes32 nodeIP) {\n\n        uint maxNumber = nodes.length;\n        uint nodeIndex = uint(keccak256(abi.encodePacked(block.timestamp, msg.sender, block.number))) % (maxNumber);\n\n        nodeIP = nodes[nodeIndex].nodeIPAddress;\n        return nodeIP;\n    \n    } \n\n    /** \n     * @dev Write a CDR (Call Data Record). For every call, a CDR will be written by one node only\n     * @param addrCaller id of the caller\n     * @param addrCallee id of the callee \n     * @param startCallDate start call date \n     * @param callDuration call duration \n     * @param nodeIdCallOperator node id which operated the call \n     * @param nodeIdCDRWriter node id which wrote the CDR \n     */\n    function writeCDR(\n                    address addrCaller, \n                    address addrCallee, \n                    uint startCallDate, \n                    int32 callDuration, \n                    address nodeIdCallOperator, \n                    address nodeIdCDRWriter) public {\n\n        //requires that the sender to be in the list of registered nodes\n        uint i = 0;\n        bool foundNode = false;\n        while (!foundNode && (i < nodes.length)) {\n            if (nodes[i].nodeId == nodeIdCallOperator) {\n                foundNode = true;\n            }\n            i++;\n        }\n        require(\n            foundNode,\n            \"Only a registered node can write a CDR.\"\n        ); \n\n        //check all fields except the nodeIdCDRWriter\n        for (uint j = 0; j < CDRs.length; j++) {\n            if ((CDRs[j].addrCaller == addrCaller) &&\n               (CDRs[j].addrCallee == addrCallee) &&\n               (CDRs[j].startCallDate == startCallDate) &&\n               (CDRs[j].callDuration == callDuration) &&\n               (CDRs[j].nodeIdCallOperator == nodeIdCallOperator)) {\n                   //the same record was already stored, do not store again\n                   return;\n            }\n        }\n\n        //add the new CDR\n        CDRs.push(CDR({\n            addrCaller: addrCaller,\n            addrCallee: addrCallee,\n            startCallDate: startCallDate,\n            callDuration: callDuration,\n            nodeIdCallOperator: nodeIdCallOperator,\n            nodeIdCDRWriter: nodeIdCDRWriter\n        }));\n\n    }\n\n    /** \n     * @dev Gets CDRs count by user. \n     * @param userId id of the caller\n     */\n    function getCDRsCountByUser(address userId) public view returns (uint count){\n\n        require(\n            msg.sender == adminPerson,\n            \"Only adminPerson can get a user CDRs info.\"\n        );       \n        uint myCount = 0;\n        for (uint i = 0; i < CDRs.length; i++) {\n            if ( CDRs[i].addrCaller == userId ) {\n                myCount++;\n            }\n        }\n        count = myCount;\n        return count;\n\n    }\n\n    /** \n     * @dev Gets CDRs by userId and index for the same userId. \n     * @param userId id of the caller\n     * @param index index in the array of the same userId\n     */\n    function getCDRsByUserIndex(address userId, uint index) public view returns (\n                                address addrCaller, \n                                address addrCallee, \n                                uint startCallDate, \n                                int32 callDuration, \n                                address nodeIdCallOperator, \n                                address nodeIdCDRWriter ){\n\n        require(\n            msg.sender == adminPerson,\n            \"Only adminPerson can get a CDRs user info.\"\n        );       \n\n        uint counter;\n        uint i = 0;\n        while ( i < CDRs.length) {\n            if ( CDRs[i].addrCaller == userId ) {\n                if (index == counter) {\n                    return (CDRs[i].addrCaller, \n                            CDRs[i].addrCallee, \n                            CDRs[i].startCallDate, \n                            CDRs[i].callDuration, \n                            CDRs[i].nodeIdCallOperator, \n                            CDRs[i].nodeIdCDRWriter);\n                }\n                counter++;\n            }\n            i++;\n        }\n\n        return (address(0),address(0),0, 0, address(0),address(0));\n\n    }\n\n    /** \n     * @dev Gets CDRs count by node operator. \n     * @param nodeId id of the caller\n     */\n    function getCDRsCountByNodeOperator(address nodeId) public view returns (uint count){\n\n        require(\n            msg.sender == adminPerson,\n            \"Only adminPerson can get a user CDRs info.\"\n        );       \n        uint myCount = 0;\n        for (uint i = 0; i < CDRs.length; i++) {\n            if ( CDRs[i].nodeIdCallOperator == nodeId ) {\n                myCount++;\n            }\n        }\n        count = myCount;\n        return count;\n\n    }\n\n    /** \n     * @dev Gets CDRs by node operator and index of the same node operator. \n     * @param nodeId id of the caller\n     * @param index index in the array of the same node operator \n     */\n    function getCDRsByNodeOperatorIndex(address nodeId, uint index) public view returns (\n                                address addrCaller, \n                                address addrCallee, \n                                uint startCallDate, \n                                int32 callDuration, \n                                address nodeIdCallOperator, \n                                address nodeIdCDRWriter\n    ){\n\n        require(\n            msg.sender == adminPerson,\n            \"Only adminPerson can get CDRs nodes info.\"\n        );       \n\n        uint counter;\n        uint i = 0;\n        while ( i < CDRs.length) {\n            if ( CDRs[i].nodeIdCallOperator == nodeId ) {\n                if (index == counter) {\n                    return (CDRs[i].addrCaller, \n                            CDRs[i].addrCallee, \n                            CDRs[i].startCallDate, \n                            CDRs[i].callDuration, \n                            CDRs[i].nodeIdCallOperator, \n                            CDRs[i].nodeIdCDRWriter);\n                }\n                counter++;\n            }\n            i++;\n        }\n\n        return (address(0),address(0),0, 0, address(0),address(0));\n\n    }\n\n}\n",
  "sourcePath": "/Users/gilles/phone0x/contracts/phone0x.sol",
  "compiler": {
    "name": "solc",
    "version": "0.8.11+commit.d7f03943.Emscripten.clang"
  },
  "schemaVersion": "3.4.5",
  "updatedAt": "2022-11-03T17:47:15.645Z",
  "networkType": "ethereum",
  "devdoc": {
    "details": "Implements voip nodes network management",
    "kind": "dev",
    "methods": {
      "addNode(address,bytes32)": {
        "details": "Create a new voip node.",
        "params": {
          "nodeIP": "IP address or domain name of the node",
          "nodeId": "node id which is the address of the node "
        }
      },
      "addUser(address,bytes32)": {
        "details": "add a new user to the voip network.",
        "params": {
          "userCreds": "user's credentials on the voip node",
          "userId": "user id which is the wallet address of the user "
        }
      },
      "constructor": {
        "details": "Create a new voip network.",
        "params": {
          "firstNodeIP": "first node IP",
          "firstNodeId": "first node id "
        }
      },
      "getCDRsByNodeOperatorIndex(address,uint256)": {
        "details": "Gets CDRs by node operator and index of the same node operator. ",
        "params": {
          "index": "index in the array of the same node operator ",
          "nodeId": "id of the caller"
        }
      },
      "getCDRsByUserIndex(address,uint256)": {
        "details": "Gets CDRs by userId and index for the same userId. ",
        "params": {
          "index": "index in the array of the same userId",
          "userId": "id of the caller"
        }
      },
      "getCDRsCountByNodeOperator(address)": {
        "details": "Gets CDRs count by node operator. ",
        "params": {
          "nodeId": "id of the caller"
        }
      },
      "getCDRsCountByUser(address)": {
        "details": "Gets CDRs count by user. ",
        "params": {
          "userId": "id of the caller"
        }
      },
      "getNodeIP(address)": {
        "details": "Get the IP of a a voip node.",
        "params": {
          "nodeId": "node id which is the address of the node "
        }
      },
      "getRandomNodeIP()": {
        "details": "Gets a random voip node IP from. This is a temporary solution as it provides a pseudo-random number, VRF function of chainlink should be implemented later"
      },
      "getUserCreds(address)": {
        "details": "get credentials of a user.",
        "params": {
          "userId": "user id which is the wallet address of the user "
        }
      },
      "removeNode(address)": {
        "details": "Remove node IP of a a voip node.",
        "params": {
          "nodeId": "node id which is the address of the node "
        }
      },
      "removeUser(address)": {
        "details": "removce a new user from the voip network.",
        "params": {
          "userId": "user id which is the wallet address of the user "
        }
      },
      "updateNode(address,bytes32)": {
        "details": "Update IP of a a voip node.",
        "params": {
          "nodeIP": "new IP address or domain name of the node",
          "nodeId": "node id which is the address of the node "
        }
      },
      "updateUser(address,bytes32)": {
        "details": "update the credentials of a user.",
        "params": {
          "userCreds": "new user's credentials ",
          "userId": "user id which is the wallet address of the user "
        }
      },
      "writeCDR(address,address,uint256,int32,address,address)": {
        "details": "Write a CDR (Call Data Record). For every call, a CDR will be written by one node only",
        "params": {
          "addrCallee": "id of the callee ",
          "addrCaller": "id of the caller",
          "callDuration": "call duration ",
          "nodeIdCDRWriter": "node id which wrote the CDR ",
          "nodeIdCallOperator": "node id which operated the call ",
          "startCallDate": "start call date "
        }
      }
    },
    "title": "phone0x",
    "version": 1
  },
  "userdoc": {
    "kind": "user",
    "methods": {},
    "version": 1
  }
}